:107800000C945D3C0C94953C0C947A3C0C947A3C22
:107810000C947A3C0C947A3C0C947A3C0C947A3C10
:107820000C947A3C0C947A3C0C947A3C0C947A3C00
:107830000C947A3C0C947A3C0C947A3C0C947A3CF0
:107840000C947A3C0C947A3C0C947A3C0C947A3CE0
:107850000C947A3C0C947A3C0C947A3C0C947A3CD0
:107860000C947A3C0C947A3C0902120001010080CD
:107870006409040000000000000012011001FF0074
:107880000008C016DC050201010200010E035500CC
:10789000530042006100730070001C037700770002
:1078A00077002E00660069007300630068006C00BA
:1078B0002E00640065000403090411241FBECFEFED
:1078C000D4E0DEBFCDBF11E0A0E0B1E0EAEEFFE71B
:1078D00002C005900D92A630B107D9F711E0A6E0DD
:1078E000B1E001C01D92AD33B107E1F70E94D23D76
:1078F0000C94F43F0C94003CA82FB92F80E090E04A
:1079000041E050EA60956F5F58F42D9138EF82277F
:107910009795879510F0842795273F5FC8F3F3CF9D
:107920000895EADF8D939D930895CF93CFB7CF93BA
:10793000C3954F9BE9F74F9B09C04F9B07C04F9BD7
:1079400005C04F9B03C04F9B01C0A1C0DF93C091F6
:107950002001DD27C95DDE4F4F9B02C0DF91EBCFD9
:107960002F930F931F9309B12FEF07FB20F94F932C
:107970003F9319B14FEF012707FB21F93BE031C0DD
:107980004E7F012F19B1216028C0102F4D7F22603A
:10799000000009B129C04B7F2460012F000019B1FC
:1079A0002BC019B1477F28602AC04F7E09B12061E2
:1079B0002CC04F7D19B120622FC04F7B09B12064CC
:1079C00032C0422709B149934FEF0000102717FB3F
:1079D00020F919B11478C9F1297F91F2012707FB29
:1079E00021F909B1237F89F2315058F1102717FB93
:1079F00022F919B1277E79F2012707FB23F92F7CA1
:107A000081F209B1102717FB24F92F7971F200C018
:107A100019B1012707FB25F92F7359F200C009B1ED
:107A2000102717FB26F9223040F200C019B10127B8
:107A300007FB27F9243028F64F77206819B100009A
:107A4000F9CF11E01CBB002717C03B503195C31B79
:107A5000D04011E01CBB0881033CE9F00B34D9F0A5
:107A600020911E011981110F1213EDCF093641F13A
:107A70000D3211F0013E39F7009325013F914F91EE
:107A80001F910F912F91DF91CCB3C0FD51CFCF91BA
:107A9000CFBFCF91189520912501222379F3109122
:107AA0002301112311F5343012F130932301209377
:107AB0001F01109120013BE0311B3093200117C0C2
:107AC0000091230101308CF40AE53091000134FD6E
:107AD00010C000930001C3E1D1E00FC02795A8F4C6
:107AE0005150A9F4220F0000F9CF4AE503C042ED3E
:107AF00001C0432FC4E1D0E032E01AB114685F9AAC
:107B00001AB90BB120E414E85F93012756E00BB9D2
:107B1000279520F4515021F4220FF9CF012756E088
:107B200000003B5A0BB9D0F2279528F4515029F4A4
:107B3000220F0000F9CF012756E027950BB920F45A
:107B4000515021F4220FF9CF012756E02991332318
:107B50000BB921F60B7710912401110FC651D040BB
:107B60000BB911F010931E0111E01CBB00681AB193
:107B70001B77402F4B775F9100C000C00BB91AB93B
:107B80004BB97CCF1BB8F8941DBA1092690081E004
:107B900085BF15BEE0911101F091120109953B9A44
:107BA000439A0895CFEFD4E0DEBFCDBF88E10FB692
:107BB000F89480936000109260000FBE5F9A04B644
:107BC00001FEFAC114BE81E085BF82E085BF89B1A4
:107BD0000E94CF3DDD24CD2C80916900836080938D
:107BE0006900E89A579A2FEFA89588EB9BE00197D8
:107BF000F1F72150C9F75798789490912301935049
:107C000097FD4FC180912001A3E3B1E0A81BB1090A
:107C100080911F018D3209F0B2C0983009F03FC148
:107C200083EC809313018AE58093000110920A018E
:107C30003C91832F8076ED0129818823D9F1E0E002
:107C400086E091E09093220180932101233071F42A
:107C50009E2FEC818A81803329F4E370FF27EE5F49
:107C6000FE4F908190930901E4E074C0253011F437
:107C7000E1E070C0822F84508630A8F4ED018A8143
:107C80009B8190930D0180930C01293009F462C00F
:107C90008E8180930E018D81827080930F012093DD
:107CA0001001EFEF57C0223009F054C081E08093FB
:107CB0000B0150C0E82F4CE151E0ED019A81809317
:107CC0001C01222321F480931D01E2E03FC02530F6
:107CD00019F4909324013AC0263059F5282FFD015C
:107CE0008381813021F422E18AE798E719C082304C
:107CF00021F422E188E698E713C08330A9F49923A0
:107D000021F424E086EB98E70BC0913021F42CE1BC
:107D10008AE998E705C0923039F42EE08CE898E7BC
:107D2000909322018093210180E480930A01E22F45
:107D300011C0283019F446E251E007C0293019F487
:107D40009093260103C02A3009F4E1E05093220108
:107D500040932101EF3F41F437FF02C0ED01EE8176
:107D600080E880930A0108C0ED018F81882321F407
:107D70008E818E1708F4E82FE093010190C0809166
:107D80000A0187FF8CC07D01C92F80910E018917E0
:107D900008F4C82F8C1B80930E0100E0882309F49F
:107DA00001E0809110018730C0F010E01C1708F04E
:107DB0006AC0F70181917F0120910C0130910D0182
:107DC000A9012F5F3F4F30930D0120930C01682FC5
:107DD000CA010E94E63F1F5FE9CF20E02C1708F0A0
:107DE00052C063E051E045E031E180910C01909197
:107DF0000D018F779070892B61F4F894E0910C015C
:107E0000F0910D0160935700E895789407B600FC57
:107E1000FDCF2E5FF894E0910C01F0910D01D70198
:107E20008D919D917D010C0150935700E89511248F
:107E3000789480910C0190910D01029690930D0120
:107E400080930C018F779070892B41F00023C1F053
:107E50002C17B0F080910F01882391F0F894E091F5
:107E60000C01F0910D01329740935700E8957894FA
:107E700007B600FCFDCFF89430935700E89578944E
:107E80002C1708F4B2CF202F33272F3F21F48EE197
:107E90008093000104C0222311F01092010110927E
:107EA00023018091000184FF73C0809101018F3F05
:107EB00009F46EC0282F893008F028E0821B8093D7
:107EC00001018091130198E8892780931301A4E1AF
:107ED000B1E0622F222309F449C080910A0187FF93
:107EE00030C08D01C22F80910E01821708F4C82F77
:107EF0008C1B80930E01FF24FC1608F58091100165
:107F0000873048F080910C0190910D010E94DE3F76
:107F1000F801808307C0E0910C01F0910D0184917C
:107F2000D8018C930F5F1F4F80910C0190910D0130
:107F3000019690930D0180930C01F394DDCF6C2F8B
:107F400015C0922FE0912101F091220186FF06C019
:107F500084918D9331969150D9F704C081918D937E
:107F60009150E1F7F0932201E09321017727C62F8A
:107F7000693040F484E191E00E94913CCC5FCC30C8
:107F800028F401C0CEE18FEF80930101C09300017E
:107F900094E189B1847831F49150D9F79093240118
:107FA00090931E0180910B01882321F0CA9411F453
:107FB000DA9411F089B121CE0E94C23DF999FECF29
:107FC00092BD81BDF89A992780B50895262FF99919
:107FD000FECF1FBA92BD81BD20BD0FB6F894FA9AAC
:0A7FE000F99A0FBE01960895FFCF35
:067FEA005AFF1E94060080
:040000030000780081
:00000001FF